:020000040000FA
:100000000C9462000C948A000C948A000C948A0070
:100010000C948A000C948A000C948A000C948A0038
:100020000C948A000C948A000C948A000C948A0028
:100030000C948A000C948A000C948A000C948A0018
:100040000C94EB030C948A000C948A000C948A00A4
:100050000C948A000C948A000C948A000C948A00F8
:100060000C948A000C948A000000000024002700F1
:100070002A0000000000250028002B0000000000DE
:1000800023002600290004040404040404040202DA
:100090000202020203030303030301020408102007
:1000A0004080010204081020010204081020000012
:1000B0000008000201000003040700000000000027
:1000C0000000D80411241FBECFEFD8E0DEBFCDBFA3
:1000D00011E0A0E0B1E0ECEFF9E002C005900D9274
:1000E000A435B107D9F721E0A4E5B1E001C01D9224
:1000F000A537B207E1F710E0C2E6D0E004C02197CF
:10010000FE010E94F604C136D107C9F70E943504EA
:100110000C94FC040C940000AF92BF92CF92DF923B
:10012000EF92FF920F931F93CF93DF936C017B01AC
:100130008B01040F151FEB015E01AE18BF08C0173D
:10014000D10759F06991D601ED91FC910190F081B0
:10015000E02DC6010995892B79F7C501DF91CF9173
:100160001F910F91FF90EF90DF90CF90BF90AF90D5
:100170000895833081F028F4813099F08230A9F01D
:1001800008958730A9F08830C9F08430B1F48091A7
:1001900080008F7D03C0809180008F7780938000E6
:1001A000089584B58F7784BD089584B58F7DFBCF86
:1001B0008091B0008F778093B00008958091B00057
:1001C0008F7DF9CFCF93DF93282F30E0F901E255EF
:1001D000FF4F8491F901E656FF4FD491F901EA5798
:1001E000FF4FC491CC23A1F081110E94B900EC2FE4
:1001F000F0E0EE0FFF1FE458FF4FA591B491EC9192
:10020000ED2381E090E009F480E0DF91CF91089543
:1002100080E090E0FACF1F93CF93DF93282F30E058
:10022000F901E255FF4F8491F901E656FF4FD49151
:10023000F901EA57FF4FC491CC23A9F0162F811181
:100240000E94B900EC2FF0E0EE0FFF1FEE58FF4FB9
:10025000A591B4918FB7F894EC91111108C0D09585
:10026000DE23DC938FBFDF91CF911F910895DE2BAA
:10027000F8CFCF93DF9390E0FC01E656FF4F249137
:100280008A579F4FFC0184918823D1F090E0880F1A
:10029000991FFC01E859FF4FA591B491FC01EE585C
:1002A000FF4FC591D491623071F49FB7F8943C919F
:1002B000822F809583238C93E8812E2B28839FBFE8
:1002C000DF91CF9108958FB7F894EC912E2B2C935A
:1002D0008FBFF6CF3FB7F8948091590190915A01A2
:1002E000A0915B01B0915C0126B5A89B05C02F3F92
:1002F00019F00196A11DB11D3FBFBA2FA92F982F4C
:100300008827BC01CD01620F711D811D911D42E046
:10031000660F771F881F991F4A95D1F708958F920E
:100320009F92AF92BF92CF92DF92EF92FF924B01DA
:100330005C010E946A016B017C010E946A016C19D8
:100340007D098E099F09683E734081059105A8F3D8
:1003500021E0821A9108A108B10888EEC80E83E056
:10036000D81EE11CF11C81149104A104B10429F7E9
:10037000FF90EF90DF90CF90BF90AF909F908F90C5
:100380000895089590E080E00895FC010190002018
:10039000E9F73197AF01481B590BBC018DE591E09E
:1003A0000C948C00CF93DF93EC0160E08E810E946F
:1003B0000B0161E08E810E940B0160E08E810E9442
:1003C0000B018BE891E00197F1F7DF91CF91089550
:1003D000CF92DF92EF92FF920F931F93CF93DF9311
:1003E0006C017C0187E0E80EF11CD0E0C0E0062F34
:1003F00010E0B8010C2E02C0759567950A94E2F7DB
:100400006170F70181917F010E940B012196C43038
:10041000D10579F7C601DF91CF911F910F91FF9020
:10042000EF90DF90CF900C94D201CF92DF92EF92B9
:10043000FF920F931F93CF93DF93EC01F62E642F5F
:100440008C810E940B018D818F3F19F060E00E942A
:100450000B010F2D10E08F8584FF25C06E0187E012
:10046000C80ED11CF12CE12CB8010E2C02C07595E0
:1004700067950A94E2F76170F60181916F010E941D
:100480000B01FFEFEF1AFF0A88E0E816F10461F7AD
:10049000CE01DF91CF911F910F91FF90EF90DF90F0
:1004A000CF900C94D201B80184E0759567958A9538
:1004B000E1F7CE010E94E8016F2DCE01DF91CF91CF
:1004C0001F910F91FF90EF90DF90CF900C94E80177
:1004D00040E0682F8DE591E00C941502CF93DF93F7
:1004E000823029F490916C01986090936C01809314
:1004F00070011092710180E48093720180E1809319
:10050000730180E58093740161E0809161010E9434
:100510003901809162018F3F19F061E00E94390139
:1005200061E0809163010E943901CDE5D1E09E0137
:100530002D55314080916C0184FD0BC084E090E02A
:1005400021962817390744F461E08E810E94390111
:10055000EECF88E090E0F4CF8BE39DE00197F1F7D8
:1005600060E0809161010E940B0160E08091630175
:100570000E940B01809162018F3F19F060E00E94A0
:100580000B0180916C0184FD39C063E08DE591E041
:100590000E94E801CBE4D6E4CE010197F1F763E0D5
:1005A0008DE591E00E94E8012197F1F763E08DE588
:1005B00091E00E94E80183E592E00197F1F762E0A3
:1005C0008DE591E00E94E80180916C0180620E94BB
:1005D000680284E080936D018CE00E94680281E0F3
:1005E0000E9468028BE39FE10197F1F782E080931C
:1005F0006E0186E0DF91CF910C94680280620E94C8
:1006000068028BE496E40197F1F780916C018062B7
:100610000E94680283E592E00197F1F780916C01F6
:1006200080620E946802D0CF90917001691710F02B
:100630006FEF690FE62FF0E0E35AFE4F9489890FC0
:1006400080680C94680288E00E94E200892B09F01F
:10065000A5C061E085E00E9414038CE091E00E9457
:10066000C5016CE271E080E090E00E948F0188E0BB
:100670000E94E200892B09F080C061E085E00E94C1
:10068000140382E191E00E94C5016CE271E080E018
:1006900090E00E948F0188E00E94E200892B09F01F
:1006A0005BC061E085E00E94140388E191E00E9454
:1006B000C5016CE271E080E090E00E948F0188E06B
:1006C0000E94E200892BB9F561E085E00E941403E5
:1006D0008EE191E00E94C5016CE271E080E090E063
:1006E0000E948F0188E00E94E200892BA1F461E062
:1006F00085E00E94140345E050E064E271E08DE57E
:1007000091E00E948C006CE271E080E090E00E9439
:100710008F010E94230389E00E94E200892B11F7D8
:100720008EE00E94E20061E0892B09F060E08EE03B
:100730000E940B01D1CF89E00E94E200892B09F0D1
:10074000BECF8DE00E94E20061E0892B09F060E0FD
:100750008DE00E940B01ADCF89E00E94E200892B61
:1007600009F099CF8CE00E94E20061E0892B09F04A
:1007700060E08CE00E940B0188CF89E00E94E200DB
:10078000892B09F074CF8BE00E94E20061E0892B95
:1007900009F060E08BE00E940B0163CF89E00E94CA
:1007A000E200892B09F04FCF8AE00E94E20061E06D
:1007B000892B09F060E08AE00E940B016CE271E095
:1007C00080E090E00E948F013ECF41E00E94150240
:1007D00081E090E008951F920F920FB60F921124BE
:1007E0002F933F938F939F93AF93BF938091550126
:1007F00090915601A0915701B09158013091540148
:1008000023E0230F2D3758F50196A11DB11D20932C
:1008100054018093550190935601A0935701B093D2
:1008200058018091590190915A01A0915B01B091BA
:100830005C010196A11DB11D8093590190935A014D
:10084000A0935B01B0935C01BF91AF919F918F9199
:100850003F912F910F900FBE0F901F90189526E893
:10086000230F0296A11DB11DD2CF789484B582606A
:1008700084BD84B5816084BD85B5826085BD85B544
:10088000816085BD80916E00816080936E001092C2
:10089000810080918100826080938100809181003D
:1008A00081608093810080918000816080938000CE
:1008B0008091B10084608093B1008091B00081602C
:1008C0008093B00080917A00846080937A00809158
:1008D0007A00826080937A0080917A0081608093B0
:1008E0007A0080917A00806880937A001092C1002B
:1008F00082E00E946E0262E088E00E94390162E0BC
:1009000089E00E94390161E08AE00E94390161E0DA
:100910008BE00E94390161E08CE00E94390161E0C6
:100920008DE00E94390161E08EE00E94390160E0B3
:1009300080E00E9414038AE291E00E94C50161E018
:1009400080E00E94140389E391E00E94C50164EFF6
:1009500071E080E090E00E948F01C0E0D0E088E08C
:100960000E94E200892BF9F481E00E9468028BE387
:100970009FE10197F1F760E080E00E94140386E4B4
:1009800091E00E94C50161E085E00E94140384E2C9
:1009900091E00E94C50164EF71E080E090E00E9468
:1009A0008F010E9423032097D1F20E940000D7CF2D
:1009B000EDE5F1E01382128284E091E0918380837F
:1009C00087E084838FEF858386E0868385E0878355
:1009D00084E0808783E0818782E0828713861486A3
:1009E00015861686178681E00C946E02EE0FFF1FA7
:1009F0000590F491E02D0994F894FFCF00000000D9
:100A0000E5038C00C201C1014C45442032004C4535
:100A1000442033004C45442034004C4544203500EC
:100A20004C45442031002A2A2A2A2A2A4D454E556F
:100A30002A2A2A2A0050524553494F4E41205345F5
:100A40004C002A2A2A53454C454354204C45440027
:107E0000112484B714BE81FFF0D085E080938100F7
:107E100082E08093C00088E18093C10086E0809377
:107E2000C20080E18093C4008EE0C9D0259A86E02C
:107E300020E33CEF91E0309385002093840096BBD3
:107E4000B09BFECF1D9AA8958150A9F7CC24DD24C4
:107E500088248394B5E0AB2EA1E19A2EF3E0BF2EE7
:107E6000A2D0813461F49FD0082FAFD0023811F036
:107E7000013811F484E001C083E08DD089C08234E0
:107E800011F484E103C0853419F485E0A6D080C0E4
:107E9000853579F488D0E82EFF2485D0082F10E0AE
:107EA000102F00270E291F29000F111F8ED06801E7
:107EB0006FC0863521F484E090D080E0DECF843638
:107EC00009F040C070D06FD0082F6DD080E0C81688
:107ED00080E7D80618F4F601B7BEE895C0E0D1E017
:107EE00062D089930C17E1F7F0E0CF16F0E7DF06D8
:107EF00018F0F601B7BEE89568D007B600FCFDCFD4
:107F0000A601A0E0B1E02C9130E011968C91119780
:107F100090E0982F8827822B932B1296FA010C0160
:107F200087BEE89511244E5F5F4FF1E0A038BF0790
:107F300051F7F601A7BEE89507B600FCFDCF97BE46
:107F4000E89526C08437B1F42ED02DD0F82E2BD052
:107F50003CD0F601EF2C8F010F5F1F4F84911BD097
:107F6000EA94F801C1F70894C11CD11CFA94CF0C13
:107F7000D11C0EC0853739F428D08EE10CD085E9AC
:107F80000AD08FE07ACF813511F488E018D01DD067
:107F900080E101D065CF982F8091C00085FFFCCF94
:107FA0009093C60008958091C00087FFFCCF809118
:107FB000C00084FD01C0A8958091C6000895E0E648
:107FC000F0E098E1908380830895EDDF803219F02E
:107FD00088E0F5DFFFCF84E1DECF1F93182FE3DFCA
:107FE0001150E9F7F2DF1F91089580E0E8DFEE27F6
:047FF000FF270994CA
:027FFE00040479
:00000001FF
